{
  "_format": "hh-sol-artifact-1",
  "contractName": "SmartContractFactory",
  "sourceName": "contracts/clientfactory.sol",
  "abi": [
    {
      "anonymous": false,
      "inputs": [
        {
          "indexed": false,
          "internalType": "contract PolicySmartContract",
          "name": "a",
          "type": "address"
        },
        {
          "indexed": false,
          "internalType": "string",
          "name": "newMessage",
          "type": "string"
        },
        {
          "indexed": false,
          "internalType": "string",
          "name": "policy",
          "type": "string"
        },
        {
          "indexed": false,
          "internalType": "string",
          "name": "duration",
          "type": "string"
        },
        {
          "indexed": false,
          "internalType": "string",
          "name": "date_of_policy",
          "type": "string"
        },
        {
          "indexed": false,
          "internalType": "string",
          "name": "phone",
          "type": "string"
        },
        {
          "indexed": false,
          "internalType": "string",
          "name": "name",
          "type": "string"
        },
        {
          "indexed": false,
          "internalType": "string",
          "name": "price",
          "type": "string"
        }
      ],
      "name": "Policy",
      "type": "event"
    },
    {
      "inputs": [
        {
          "internalType": "string",
          "name": "newMessage",
          "type": "string"
        },
        {
          "internalType": "string",
          "name": "_policy",
          "type": "string"
        },
        {
          "internalType": "string",
          "name": "_duration",
          "type": "string"
        },
        {
          "internalType": "string",
          "name": "_date_of_policy",
          "type": "string"
        },
        {
          "internalType": "string",
          "name": "_phone",
          "type": "string"
        },
        {
          "internalType": "string",
          "name": "_name",
          "type": "string"
        },
        {
          "internalType": "string",
          "name": "_price",
          "type": "string"
        }
      ],
      "name": "update",
      "outputs": [
        {
          "internalType": "contract PolicySmartContract",
          "name": "",
          "type": "address"
        }
      ],
      "stateMutability": "nonpayable",
      "type": "function"
    }
  ],
  "bytecode": "0x608060405234801561001057600080fd5b5061185a806100206000396000f3fe60806040523480156200001157600080fd5b50600436106200002e5760003560e01c80634e1512721462000033575b600080fd5b6200005160048036038101906200004b919062000210565b62000069565b604051620000609190620003ee565b60405180910390f35b600087878787878787604051620000809062000184565b620000929796959493929190620004ca565b604051809103906000f080158015620000af573d6000803e3d6000fd5b506000806101000a81548173ffffffffffffffffffffffffffffffffffffffff021916908373ffffffffffffffffffffffffffffffffffffffff1602179055507f3b2dd5b1b2b100286dda470391c57c7f4b8f02a164ef56c0373656cffc90704f60008054906101000a900473ffffffffffffffffffffffffffffffffffffffff16898989898989896040516200014e9897969594939291906200040b565b60405180910390a160008054906101000a900473ffffffffffffffffffffffffffffffffffffffff169050979650505050505050565b611106806200071f83390190565b6000620001a9620001a384620005a1565b62000578565b905082815260208101848484011115620001c857620001c7620006fe565b5b620001d58482856200064f565b509392505050565b600082601f830112620001f557620001f4620006f9565b5b81356200020784826020860162000192565b91505092915050565b600080600080600080600060e0888a03121562000232576200023162000708565b5b600088013567ffffffffffffffff81111562000253576200025262000703565b5b620002618a828b01620001dd565b975050602088013567ffffffffffffffff81111562000285576200028462000703565b5b620002938a828b01620001dd565b965050604088013567ffffffffffffffff811115620002b757620002b662000703565b5b620002c58a828b01620001dd565b955050606088013567ffffffffffffffff811115620002e957620002e862000703565b5b620002f78a828b01620001dd565b945050608088013567ffffffffffffffff8111156200031b576200031a62000703565b5b620003298a828b01620001dd565b93505060a088013567ffffffffffffffff8111156200034d576200034c62000703565b5b6200035b8a828b01620001dd565b92505060c088013567ffffffffffffffff8111156200037f576200037e62000703565b5b6200038d8a828b01620001dd565b91505092959891949750929550565b620003a78162000613565b82525050565b6000620003ba82620005d7565b620003c68185620005e2565b9350620003d88185602086016200065e565b620003e3816200070d565b840191505092915050565b60006020820190506200040560008301846200039c565b92915050565b60006101008201905062000423600083018b6200039c565b818103602083015262000437818a620003ad565b905081810360408301526200044d8189620003ad565b90508181036060830152620004638188620003ad565b90508181036080830152620004798187620003ad565b905081810360a08301526200048f8186620003ad565b905081810360c0830152620004a58185620003ad565b905081810360e0830152620004bb8184620003ad565b90509998505050505050505050565b600060e0820190508181036000830152620004e6818a620003ad565b90508181036020830152620004fc8189620003ad565b90508181036040830152620005128188620003ad565b90508181036060830152620005288187620003ad565b905081810360808301526200053e8186620003ad565b905081810360a0830152620005548185620003ad565b905081810360c08301526200056a8184620003ad565b905098975050505050505050565b60006200058462000597565b905062000592828262000694565b919050565b6000604051905090565b600067ffffffffffffffff821115620005bf57620005be620006ca565b5b620005ca826200070d565b9050602081019050919050565b600081519050919050565b600082825260208201905092915050565b600073ffffffffffffffffffffffffffffffffffffffff82169050919050565b6000620006208262000627565b9050919050565b600062000634826200063b565b9050919050565b60006200064882620005f3565b9050919050565b82818337600083830152505050565b60005b838110156200067e57808201518184015260208101905062000661565b838111156200068e576000848401525b50505050565b6200069f826200070d565b810181811067ffffffffffffffff82111715620006c157620006c0620006ca565b5b80604052505050565b7f4e487b7100000000000000000000000000000000000000000000000000000000600052604160045260246000fd5b600080fd5b600080fd5b600080fd5b600080fd5b6000601f19601f830116905091905056fe60806040523480156200001157600080fd5b506040516200110638038062001106833981810160405281019062000037919062000221565b86600090805190602001906200004f929190620000f3565b50856001908051906020019062000068929190620000f3565b50846002908051906020019062000081929190620000f3565b5083600390805190602001906200009a929190620000f3565b508260049080519060200190620000b3929190620000f3565b508160059080519060200190620000cc929190620000f3565b508060069080519060200190620000e5929190620000f3565b505050505050505062000531565b828054620001019062000442565b90600052602060002090601f01602090048101928262000125576000855562000171565b82601f106200014057805160ff191683800117855562000171565b8280016001018555821562000171579182015b828111156200017057825182559160200191906001019062000153565b5b50905062000180919062000184565b5090565b5b808211156200019f57600081600090555060010162000185565b5090565b6000620001ba620001b484620003d6565b620003ad565b905082815260208101848484011115620001d957620001d862000511565b5b620001e68482856200040c565b509392505050565b600082601f8301126200020657620002056200050c565b5b815162000218848260208601620001a3565b91505092915050565b600080600080600080600060e0888a0312156200024357620002426200051b565b5b600088015167ffffffffffffffff81111562000264576200026362000516565b5b620002728a828b01620001ee565b975050602088015167ffffffffffffffff81111562000296576200029562000516565b5b620002a48a828b01620001ee565b965050604088015167ffffffffffffffff811115620002c857620002c762000516565b5b620002d68a828b01620001ee565b955050606088015167ffffffffffffffff811115620002fa57620002f962000516565b5b620003088a828b01620001ee565b945050608088015167ffffffffffffffff8111156200032c576200032b62000516565b5b6200033a8a828b01620001ee565b93505060a088015167ffffffffffffffff8111156200035e576200035d62000516565b5b6200036c8a828b01620001ee565b92505060c088015167ffffffffffffffff81111562000390576200038f62000516565b5b6200039e8a828b01620001ee565b91505092959891949750929550565b6000620003b9620003cc565b9050620003c7828262000478565b919050565b6000604051905090565b600067ffffffffffffffff821115620003f457620003f3620004dd565b5b620003ff8262000520565b9050602081019050919050565b60005b838110156200042c5780820151818401526020810190506200040f565b838111156200043c576000848401525b50505050565b600060028204905060018216806200045b57607f821691505b60208210811415620004725762000471620004ae565b5b50919050565b620004838262000520565b810181811067ffffffffffffffff82111715620004a557620004a4620004dd565b5b80604052505050565b7f4e487b7100000000000000000000000000000000000000000000000000000000600052602260045260246000fd5b7f4e487b7100000000000000000000000000000000000000000000000000000000600052604160045260246000fd5b600080fd5b600080fd5b600080fd5b600080fd5b6000601f19601f8301169050919050565b610bc580620005416000396000f3fe608060405234801561001057600080fd5b50600436106100ea5760003560e01c806398d5fdca1161008c578063ad2e8c9b11610066578063ad2e8c9b1461021b578063c4382fa614610239578063ce1e462614610257578063e21f37ce14610275576100ea565b806398d5fdca146101c1578063a035b1fe146101df578063aa3c542d146101fd576100ea565b806317d7de7c116100c857806317d7de7c1461014957806320bdd61d146101675780638863bab0146101855780639284f497146101a3576100ea565b80630505c8c9146100ef57806306fdde031461010d5780630fb5a6b41461012b575b600080fd5b6100f7610293565b6040516101049190610aac565b60405180910390f35b610115610321565b6040516101229190610aac565b60405180910390f35b6101336103af565b6040516101409190610aac565b60405180910390f35b61015161043d565b60405161015e9190610aac565b60405180910390f35b61016f6104cf565b60405161017c9190610aac565b60405180910390f35b61018d610561565b60405161019a9190610aac565b60405180910390f35b6101ab6105f3565b6040516101b89190610aac565b60405180910390f35b6101c9610681565b6040516101d69190610aac565b60405180910390f35b6101e7610713565b6040516101f49190610aac565b60405180910390f35b6102056107a1565b6040516102129190610aac565b60405180910390f35b61022361082f565b6040516102309190610aac565b60405180910390f35b6102416108c1565b60405161024e9190610aac565b60405180910390f35b61025f610953565b60405161026c9190610aac565b60405180910390f35b61027d6109e5565b60405161028a9190610aac565b60405180910390f35b600180546102a090610b1d565b80601f01602080910402602001604051908101604052809291908181526020018280546102cc90610b1d565b80156103195780601f106102ee57610100808354040283529160200191610319565b820191906000526020600020905b8154815290600101906020018083116102fc57829003601f168201915b505050505081565b6005805461032e90610b1d565b80601f016020809104026020016040519081016040528092919081815260200182805461035a90610b1d565b80156103a75780601f1061037c576101008083540402835291602001916103a7565b820191906000526020600020905b81548152906001019060200180831161038a57829003601f168201915b505050505081565b600280546103bc90610b1d565b80601f01602080910402602001604051908101604052809291908181526020018280546103e890610b1d565b80156104355780601f1061040a57610100808354040283529160200191610435565b820191906000526020600020905b81548152906001019060200180831161041857829003601f168201915b505050505081565b60606005805461044c90610b1d565b80601f016020809104026020016040519081016040528092919081815260200182805461047890610b1d565b80156104c55780601f1061049a576101008083540402835291602001916104c5565b820191906000526020600020905b8154815290600101906020018083116104a857829003601f168201915b5050505050905090565b6060600380546104de90610b1d565b80601f016020809104026020016040519081016040528092919081815260200182805461050a90610b1d565b80156105575780601f1061052c57610100808354040283529160200191610557565b820191906000526020600020905b81548152906001019060200180831161053a57829003601f168201915b5050505050905090565b60606004805461057090610b1d565b80601f016020809104026020016040519081016040528092919081815260200182805461059c90610b1d565b80156105e95780601f106105be576101008083540402835291602001916105e9565b820191906000526020600020905b8154815290600101906020018083116105cc57829003601f168201915b5050505050905090565b6004805461060090610b1d565b80601f016020809104026020016040519081016040528092919081815260200182805461062c90610b1d565b80156106795780601f1061064e57610100808354040283529160200191610679565b820191906000526020600020905b81548152906001019060200180831161065c57829003601f168201915b505050505081565b60606006805461069090610b1d565b80601f01602080910402602001604051908101604052809291908181526020018280546106bc90610b1d565b80156107095780601f106106de57610100808354040283529160200191610709565b820191906000526020600020905b8154815290600101906020018083116106ec57829003601f168201915b5050505050905090565b6006805461072090610b1d565b80601f016020809104026020016040519081016040528092919081815260200182805461074c90610b1d565b80156107995780601f1061076e57610100808354040283529160200191610799565b820191906000526020600020905b81548152906001019060200180831161077c57829003601f168201915b505050505081565b600380546107ae90610b1d565b80601f01602080910402602001604051908101604052809291908181526020018280546107da90610b1d565b80156108275780601f106107fc57610100808354040283529160200191610827565b820191906000526020600020905b81548152906001019060200180831161080a57829003601f168201915b505050505081565b60606002805461083e90610b1d565b80601f016020809104026020016040519081016040528092919081815260200182805461086a90610b1d565b80156108b75780601f1061088c576101008083540402835291602001916108b7565b820191906000526020600020905b81548152906001019060200180831161089a57829003601f168201915b5050505050905090565b6060600080546108d090610b1d565b80601f01602080910402602001604051908101604052809291908181526020018280546108fc90610b1d565b80156109495780601f1061091e57610100808354040283529160200191610949565b820191906000526020600020905b81548152906001019060200180831161092c57829003601f168201915b5050505050905090565b60606001805461096290610b1d565b80601f016020809104026020016040519081016040528092919081815260200182805461098e90610b1d565b80156109db5780601f106109b0576101008083540402835291602001916109db565b820191906000526020600020905b8154815290600101906020018083116109be57829003601f168201915b5050505050905090565b600080546109f290610b1d565b80601f0160208091040260200160405190810160405280929190818152602001828054610a1e90610b1d565b8015610a6b5780601f10610a4057610100808354040283529160200191610a6b565b820191906000526020600020905b815481529060010190602001808311610a4e57829003601f168201915b505050505081565b6000610a7e82610ace565b610a888185610ad9565b9350610a98818560208601610aea565b610aa181610b7e565b840191505092915050565b60006020820190508181036000830152610ac68184610a73565b905092915050565b600081519050919050565b600082825260208201905092915050565b60005b83811015610b08578082015181840152602081019050610aed565b83811115610b17576000848401525b50505050565b60006002820490506001821680610b3557607f821691505b60208210811415610b4957610b48610b4f565b5b50919050565b7f4e487b7100000000000000000000000000000000000000000000000000000000600052602260045260246000fd5b6000601f19601f830116905091905056fea26469706673582212208fe2ec53f9ec18ec7c9561bfde4bfdb35b7765075fdad3ddd5375e7ed9beb78864736f6c63430008070033a26469706673582212202b4f529c044d0d52beaff6ff3bcb9720aceecc99c5739a12f8342f5fe18f6e8d64736f6c63430008070033",
  "linkReferences": {},
  "deployedLinkReferences": {}
}