{
  "_format": "hh-sol-artifact-1",
  "contractName": "Mapping",
  "sourceName": "contracts/mapping.sol",
  "abi": [
    {
      "anonymous": false,
      "inputs": [
        {
          "indexed": false,
          "internalType": "address",
          "name": "contractAddress",
          "type": "address"
        }
      ],
      "name": "Map",
      "type": "event"
    },
    {
      "inputs": [
        {
          "internalType": "string",
          "name": "_id",
          "type": "string"
        }
      ],
      "name": "getId",
      "outputs": [
        {
          "internalType": "address",
          "name": "",
          "type": "address"
        }
      ],
      "stateMutability": "nonpayable",
      "type": "function"
    },
    {
      "inputs": [
        {
          "internalType": "string",
          "name": "_id",
          "type": "string"
        }
      ],
      "name": "getIdview",
      "outputs": [
        {
          "internalType": "address",
          "name": "",
          "type": "address"
        }
      ],
      "stateMutability": "view",
      "type": "function"
    },
    {
      "inputs": [
        {
          "internalType": "string",
          "name": "",
          "type": "string"
        }
      ],
      "name": "myMap",
      "outputs": [
        {
          "internalType": "address",
          "name": "",
          "type": "address"
        }
      ],
      "stateMutability": "view",
      "type": "function"
    },
    {
      "inputs": [
        {
          "internalType": "string",
          "name": "_id",
          "type": "string"
        }
      ],
      "name": "removeId",
      "outputs": [],
      "stateMutability": "nonpayable",
      "type": "function"
    },
    {
      "inputs": [
        {
          "internalType": "string",
          "name": "_id",
          "type": "string"
        },
        {
          "internalType": "address",
          "name": "_addr",
          "type": "address"
        }
      ],
      "name": "setId",
      "outputs": [],
      "stateMutability": "nonpayable",
      "type": "function"
    }
  ],
  "bytecode": "0x608060405234801561001057600080fd5b50610664806100206000396000f3fe608060405234801561001057600080fd5b50600436106100575760003560e01c80636630b2ae1461005c5780636c88e56d1461008c578063bee51f3b146100a8578063ebd746c9146100d8578063ff3a0ad0146100f4575b600080fd5b6100766004803603810190610071919061039b565b610124565b6040516100839190610497565b60405180910390f35b6100a660048036038101906100a191906103e4565b61016b565b005b6100c260048036038101906100bd919061039b565b6101cc565b6040516100cf9190610497565b60405180910390f35b6100f260048036038101906100ed919061039b565b610289565b005b61010e6004803603810190610109919061039b565b6102cd565b60405161011b9190610497565b60405180910390f35b600080826040516101359190610480565b908152602001604051809103902060009054906101000a900473ffffffffffffffffffffffffffffffffffffffff169050919050565b8060008360405161017c9190610480565b908152602001604051809103902060006101000a81548173ffffffffffffffffffffffffffffffffffffffff021916908373ffffffffffffffffffffffffffffffffffffffff1602179055505050565b60007fc483b71cb91a8ae5b1f275635dce163bf3e07b25d4a368b76c039f86b9196c3e6000836040516101ff9190610480565b908152602001604051809103902060009054906101000a900473ffffffffffffffffffffffffffffffffffffffff1660405161023b9190610497565b60405180910390a16000826040516102539190610480565b908152602001604051809103902060009054906101000a900473ffffffffffffffffffffffffffffffffffffffff169050919050565b6000816040516102999190610480565b908152602001604051809103902060006101000a81549073ffffffffffffffffffffffffffffffffffffffff021916905550565b6000818051602081018201805184825260208301602085012081835280955050505050506000915054906101000a900473ffffffffffffffffffffffffffffffffffffffff1681565b6000610329610324846104d7565b6104b2565b905082815260208101848484011115610345576103446105f7565b5b610350848285610550565b509392505050565b60008135905061036781610617565b92915050565b600082601f830112610382576103816105f2565b5b8135610392848260208601610316565b91505092915050565b6000602082840312156103b1576103b0610601565b5b600082013567ffffffffffffffff8111156103cf576103ce6105fc565b5b6103db8482850161036d565b91505092915050565b600080604083850312156103fb576103fa610601565b5b600083013567ffffffffffffffff811115610419576104186105fc565b5b6104258582860161036d565b925050602061043685828601610358565b9150509250929050565b6104498161051e565b82525050565b600061045a82610508565b6104648185610513565b935061047481856020860161055f565b80840191505092915050565b600061048c828461044f565b915081905092915050565b60006020820190506104ac6000830184610440565b92915050565b60006104bc6104cd565b90506104c88282610592565b919050565b6000604051905090565b600067ffffffffffffffff8211156104f2576104f16105c3565b5b6104fb82610606565b9050602081019050919050565b600081519050919050565b600081905092915050565b600061052982610530565b9050919050565b600073ffffffffffffffffffffffffffffffffffffffff82169050919050565b82818337600083830152505050565b60005b8381101561057d578082015181840152602081019050610562565b8381111561058c576000848401525b50505050565b61059b82610606565b810181811067ffffffffffffffff821117156105ba576105b96105c3565b5b80604052505050565b7f4e487b7100000000000000000000000000000000000000000000000000000000600052604160045260246000fd5b600080fd5b600080fd5b600080fd5b600080fd5b6000601f19601f8301169050919050565b6106208161051e565b811461062b57600080fd5b5056fea26469706673582212203103fcb4f7878792b53a6f0d6e2764ee86a87329feadead32c83804a9c21a5e364736f6c63430008070033",
  "linkReferences": {},
  "deployedLinkReferences": {}
}