{
  "_format": "hh-sol-artifact-1",
  "contractName": "Alarm",
  "sourceName": "contracts/alarm.sol",
  "abi": [
    {
      "anonymous": false,
      "inputs": [
        {
          "indexed": false,
          "internalType": "uint256",
          "name": "plus",
          "type": "uint256"
        }
      ],
      "name": "Plus",
      "type": "event"
    },
    {
      "inputs": [
        {
          "internalType": "uint256",
          "name": "add",
          "type": "uint256"
        }
      ],
      "name": "Add",
      "outputs": [],
      "stateMutability": "nonpayable",
      "type": "function"
    },
    {
      "inputs": [],
      "name": "getInput",
      "outputs": [
        {
          "internalType": "uint256",
          "name": "",
          "type": "uint256"
        }
      ],
      "stateMutability": "view",
      "type": "function"
    }
  ],
  "bytecode": "0x6080604052601960005534801561001557600080fd5b5061021b806100256000396000f3fe608060405234801561001057600080fd5b50600436106100365760003560e01c8063186c2e5f1461003b57806390f1f75814610059575b600080fd5b610043610075565b604051610050919061011f565b60405180910390f35b610073600480360381019061006e91906100e3565b61007e565b005b60008054905090565b8060005461008c919061013a565b6000819055507f62b24dade1d60100598a2e47eeaae020444fac981892da639c830479473c5bab6000546040516100c3919061011f565b60405180910390a150565b6000813590506100dd816101ce565b92915050565b6000602082840312156100f9576100f86101c9565b5b6000610107848285016100ce565b91505092915050565b61011981610190565b82525050565b60006020820190506101346000830184610110565b92915050565b600061014582610190565b915061015083610190565b9250827fffffffffffffffffffffffffffffffffffffffffffffffffffffffffffffffff038211156101855761018461019a565b5b828201905092915050565b6000819050919050565b7f4e487b7100000000000000000000000000000000000000000000000000000000600052601160045260246000fd5b600080fd5b6101d781610190565b81146101e257600080fd5b5056fea264697066735822122001f828af17e2083d3d93741abc2d9072cc81a1b559f6d37536f8cd478080548e64736f6c63430008070033",
  "linkReferences": {},
  "deployedLinkReferences": {}
}